:100000001DC100004CC100004AC1000048C10000F1
:1000100046C1000044C1000042C1000040C10000D0
:100020003EC100003CC100003AC1000038C10000E0
:1000300036C1000034C1000032C1000030C10000F0
:100040002EC100002CC100002AC1000028C1000000
:100050000C94010C24C1000022C100000C94081E65
:100060001EC100000C944F1F0C94261F18C10000E5
:1000700016C1000014C1000012C1000010C1000030
:100080000EC100000CC100000AC1000008C1000040
:1000900006C1000004C1000002C1000000C1000050
:1000A000FEC00000FCC00000CDC70000F8C000008A
:1000B000F6C00000F4C0000022C40000F0C0000040
:1000C000EEC00000ECC00000D6C400000C94FD1E81
:1000D0000C94D41EE4C00000E2C00000E0C00000A8
:1000E000DEC00000B20EAC0EC20EBA0EB70E860E07
:1000F000A60E4D0E6F207220612065206B20A92076
:1001000076207A208020842088208E2092209620BD
:10011000A9209C20A020A420010210202008081063
:100120002040102040800201020108040201010267
:100130000408102040808040201008040201800440
:10014000020180402010080402010804020101029B
:1001500004081020408001020408102040800000A4
:100160002200250028002B002E003100340002015F
:100170000000050108010B01050505050705080834
:100180000808020202020A0A080804040404010121
:100190000101010101010303030303030303040736
:1001A00007070C0C0C0C0C0C0C0C020202020606CD
:1001B0000606060606060B0B0B0B0B0B0B0B0000C3
:1001C0002100240027002A002D0030003300010107
:1001D0000000040107010A0100002000230026009E
:1001E00029002C002F00320000010000030106014D
:1001F000090100000A0B02090C0D0E080703040197
:1002000000000000000000000000000000000000EE
:1002100000000000000000000000000000001211BB
:1002200010000000000000000000000000000000BE
:10023000000000000000000085247D2411241FBE62
:10024000CFEFD1E2DEBFCDBF00E00CBF28E0A0EED3
:10025000B3E001C01D92A039B207E1F713E0A0E0BE
:10026000B2E0E2E7FFE500E00BBF02C007900D92AD
:10027000A03EB107D9F711E0CDE1D1E000E006C022
:1002800021970109802FFE010E948A2ACC31D107D3
:1002900080E00807A9F70E94E1250C94A82FB0CEB2
:1002A000FC0126813781620F731F84819581861737
:1002B000970738F08281938177836683820F931F3B
:1002C000089580E090E00895CF93DF93EC014D8195
:1002D0005E8180E1809381001092800060E070E098
:1002E00093E0440F551F661F771F9A95D1F741156C
:1002F000510581E06807710520F481E08093EE03E9
:100300000AC082E08093EE0383E076956795579567
:1003100047958A95D1F75093E3034093E203809188
:10032000E2039091E303909387008093860080918D
:10033000EE0380618093810088818B3069F461E0F5
:100340000E949C238091800080688093800010929E
:100350008900109288001DC08C3069F461E00E9411
:100360009C238091800080628093800010928B009B
:1003700010928A000EC08D3061F461E00E949C23CF
:100380008091800088608093800010928D00109290
:100390008C008091EE038061809381001D861E8613
:1003A0001F86188A61E08B810E946D2361E089813C
:1003B000DF91CF910C946D234F925F926F927F9259
:1003C000BF92CF92DF92EF92FF920F931F93CF9342
:1003D000DF93EC01B090E0036B89062E000C770BE5
:1003E000880B990B0E94B6276B017C018C810E94BF
:1003F0000124AC018B2D64E10E942D2A8E01090F8E
:10040000111D090F111D0C5E1F4F5250BA01550FDF
:10041000880B990B0E94B62720E03CE54FE852EC90
:100420000E9415282B013C016CAD7DAD072E000C00
:10043000880B990B0E94B6279B01AC01C301B20146
:100440000E9427299B01AC01C701B6010E94152813
:100450000E94F429F80171836083B394B092E003A1
:10046000FE017496EC9660E070E0CB010191119171
:10047000012E000C220B330B600F711F821F931F84
:10048000EC17FD0799F724E130E040E050E00E94CE
:100490006E2ACA01B901DF91CF911F910F91FF9090
:1004A000EF90DF90CF90BF907F906F905F904F90D4
:1004B00008952F923F924F925F926F927F928F9208
:1004C0009F92AF92BF92CF92DF92EF92FF920F93E3
:1004D0001F93CF93DF93CDB7DEB72F970FB6F89466
:1004E000DEBF0FBECDBF1C018B0166DF6B017C013F
:1004F000D1011B96AD90BC901C97B801A016B10617
:100500000CF4B501CB01770FAA0BBB0B89839A833F
:10051000AB83BC83BC01CD010E94B6272B013C01FB
:10052000B501BB0C880B990B0E94B6276D837E83A7
:100530008F8398879B01AC01C301B2010E948C2973
:100540004B015C01D1011D968D919D910D90BC9147
:10055000A02D89879A87AB87BC879C01AD01C30119
:10056000B2010E94272920E030E040E251E40E94DD
:100570008C29162F7E878D87092F20E030E0A90176
:100580000E94252A0D2C000CEE08FF0887FD4AC0AA
:10059000F10167817085072E000C880B990B0E9472
:1005A000B627A50194010E9415284B015C01C701E3
:1005B000B6010E94B6279B01AC01C501B4010E949F
:1005C000272920E030E04AE754E40E948C294B01BF
:1005D0005C0120E030E040EA51E40E94252A181630
:1005E0002CF0782D692D9A2D8B2D04C070E060E0E1
:1005F00090EA81E4272F362F492F582F612F7E85CF
:100600008D85902F0E94B02787FD72C020E030E0DA
:1006100040EA51E4B401C5010E94252A18160CF4E1
:100620005CC056C0D10119966D917C911A97072E26
:10063000000C880B990B0E94B6272B013C01A501E9
:10064000940160E070E080E89FE30E9427299B010D
:10065000AC01C301B2010E9415284B015C01C70126
:10066000B6010E94B6279B01AC01C501B4010E94EE
:10067000272920E030E04AE754E40E948C294B010E
:100680005C0120E030E040EA51EC0E94B02787FD99
:1006900005C0782D692D9A2D8B2D04C070E060E087
:1006A00090EA81EC272F362F492F582F612F7E8516
:1006B0008D85902F0E94252A1816D4F020E030E076
:1006C00040EA51ECB401C5010E94B02787FD0BC080
:1006D000182D9E86AD860B2D0BC010E01E86B0EA4D
:1006E000BD8701E405C010E01E86E0EAED8701EC5D
:1006F000212F3E854D85502F69857A858B859C8578
:100700000E9428294B015C012D813E814F81588533
:100710000E94B02787FD04C08D809E80AF80B88482
:1007200020E030E0A901B401C5010E94252A181675
:1007300024F0812C912CA12CB12CC401D501F10104
:1007400085879687A787B08B608170E080E090E016
:100750004AE00E94E92060E872E089E994E00E94A2
:10076000BF1E89819A81AB81BC81B7FF12C06DE247
:1007700089E994E00E94B81E69817A818B819C810D
:1007800090958095709561957F4F8F4F9F4F4AE070
:1007900005C04AE069817A818B819C810E94E920B1
:1007A00060E872E089E994E00E94BF1ED1011D96C5
:1007B0006D917D918D919C91509742E00E942B21EB
:1007C00060E872E089E994E00E94BF1E42E0612F78
:1007D0007E858D85902F0E942B2160E872E089E94B
:1007E00094E00E94BF1EF7FE0EC06DE289E994E01E
:1007F0000E94B81E66277727CB016C197D098E09E8
:100800009F094AE003C04AE0C701B6010E94E920FF
:1008100062E872E089E994E00E94BF1EF1016585FB
:100820007685878590890E94F4298B010F5F1F4F81
:10083000D1014C914B3049F461E08BE04F870E942D
:100840009C2380918000806815C04C3049F461E0A1
:100850008CE04F870E949C238091800080620AC0B8
:100860004D3059F461E08DE04F870E949C238091C8
:1008700080008860809380004F85A091E203B09152
:10088000E30398010E941829DC01CB012AE0B69508
:10089000A795979587952A95D1F74B3029F4909392
:1008A0008900809388000DC04C3029F490938B0010
:1008B00080938A0006C04D3021F490938D00809380
:1008C0008C008091EE038061809381002F960FB69B
:1008D000F894DEBF0FBECDBFDF91CF911F910F9176
:1008E000FF90EF90DF90CF90BF90AF909F908F9050
:1008F0007F906F905F904F903F902F9008951F9240
:100900000F920FB60F9211240BB60F92CF92DF9277
:10091000EF92FF922F933F934F935F936F937F9349
:100920008F939F93AF93BF93EF93FF931092250103
:100930001092240180912601909127018D3D9540D0
:1009400008F47EC0609126017091270180E090E05C
:100950000E94B4272DEB37E346E858E30E941528A0
:100960009B01AC0160E675EE80EA9FE30E948C2952
:1009700026E636E646E650E40E941528609387078F
:10098000709388078093890790938A0760916D0818
:1009900070916E0880916F089091700820E635EE96
:1009A00040EA5FE30E94282960936D0870936E0807
:1009B00080936F0890937008609165087091660845
:1009C000809167089091680820E635EE40EA5FE381
:1009D0000E942829609365087093660880936708D1
:1009E00090936808C0908B07D0908C07E0908D079B
:1009F000F0908E0760916508709166088091670895
:100A000090916808F7FAF094F7F8F09420E030E05D
:100A10004AE754E40E948C2920E030E048EC52E49C
:100A20000E948C299B01AC01C701B6010E948C2950
:100A3000609383077093840780938507909386075C
:100A40001092ED031092EC03FF91EF91BF91AF91E3
:100A50009F918F917F916F915F914F913F912F91D6
:100A6000FF90EF90DF90CF900F900BBE0F900FBED6
:100A70000F901F9018951F920F920FB60F9211248E
:100A80000BB60F922F933F934F935F936F937F9388
:100A90008F939F93AF93BF93EF93FF938091EC035A
:100AA0009091ED03892B39F5A895409165085091F7
:100AB0006608609167087091680880E090E00E9485
:100AC000D628A89540916D0850916E0860916F08E6
:100AD0007091700888E090E00E94CE28A89540911F
:100AE000690850916A0860916B0870916C0884E005
:100AF00090E00E94CE288091EC039091ED03019646
:100B00009093ED038093EC0310928707109288076F
:100B10001092890710928A078C34910520F0109268
:100B2000ED031092EC03FF91EF91BF91AF919F9174
:100B30008F917F916F915F914F913F912F910F9086
:100B40000BBE0F900FBE0F901F901895DB011097F2
:100B500049F0ED91FC9111970190F081E02DBC01DD
:100B6000CD01199480E090E00895CF93DF93EC01DC
:100B7000BC0184E090E0EADFFC01009729F0D1831A
:100B8000C0831382128211C08091F30381110BC0C4
:100B90001092F0031092EF031092F2031092F103FF
:100BA00081E08093F3038FEE93E0DF91CF9108957E
:100BB00060E0FC0183810C946D231092720088E048
:100BC0008093A1000FB6F894A89580916000886189
:100BD00080936000109260000FBE109290071092F8
:100BE000910785E892E00E945F1384E795E0E0DFDB
:100BF00086E395E0DDCFE1DF0E94201461E08DE126
:100C00000E946D2361E083E40E946D2368EE73E02F
:100C100080E090E00E94452461E084E40C946D2320
:100C20000F931F93FC017496AC01445C5F4F60E02E
:100C300070E0CB0101911191012E000C220B330BBE
:100C4000600F711F821F931FE417F50799F724E1C6
:100C500030E040E050E00E946E2ACA01B9011F91C5
:100C60000F9108950F931F93CF93DF93EC011DAE67
:100C70001CAE04E110E0CE019FDB01501109D9F751
:100C8000CE01CEDF7DAF6CAFDF91CF911F910F9181
:100C90000895CF93DF93EC0189810E940124BC0168
:100CA000288539858E819F816217730730F021E096
:100CB0008617970718F020E001C021E028832A85D5
:100CC0003B85621B730B77FF02C060E070E0681722
:100CD000790708F0BC01072E000C880B990B0E94C5
:100CE000B6272A813B814C815D810E9415280E9494
:100CF000F429072E000C880B990B0E94B627DF9170
:100D0000CF910895CF93DF9381E08093900784E79C
:100D100095E0DADA84E795E0A5DF86E395E0D4DABA
:100D200086E395E09FDFCFB7F8948091FB038111B4
:100D300027C0EDEAF1E08491EDE4F1E09491E82F31
:100D4000F0E0EE0FFF1FE254FE4FA591B491EC913D
:100D5000E92321F461E085E30E946D2361E085E3EE
:100D60000E949C238CB580618CBD8CB580648CBD49
:100D700061E084E30E949C2361E083E30E949C2362
:100D80008091FB038F5F8093FB03CFBF60E0809176
:100D900010070E946D2380EC2DD561E08091100733
:100DA0000E946D236AE070E080E090E00E9445249C
:100DB00080E80E949C13811172C060E08AE20E9468
:100DC000AC1360E989E20E94AC1362E088E20E9401
:100DD000AC1320E030E0A90161E080E20E94C6137C
:100DE00020E030E0A90161E084E20E94C61320E027
:100DF00030E0A90161E080E00E94C61320E030E00D
:100E0000A90160E084E00E94C61320E030E0A9015F
:100E100061E088E00E94C61320E030E0A90160E0B4
:100E200080E10E94C61320E030E0A90161E084E186
:100E30000E94C61320E030E0A90160E088E10E9432
:100E4000C613C0E360E08C2F0E94AC1360E080E129
:100E50008C0F0E94AC1360E080E28C0F0E94AC13F8
:100E6000CF5FCE3379F760E080E60E94AC1360E09C
:100E700080E70E94AC1363E08BE20E94AC1344E075
:100E800064E680E60E94721340E060E680E70E941C
:100E9000721380E00E949C13882309F4CBC08CE875
:100EA00092E00E945F138FE00E944523019739F47E
:100EB00064E670E080E090E00E944524F4CF80E09A
:100EC00094E09093800580937F0581E0809387056F
:100ED00061E0809185050E946D2360E08091760538
:100EE0000E946D23809173089091740897FF02C04F
:100EF00080E090E090937C0580937B058091710861
:100F0000909172081816190614F480E090E09093FE
:100F10007E0580937D0580E094E090934205809368
:100F200041058FEF8093490561E0809147050E945C
:100F30006D2361E0809138050E946D2380917308D4
:100F40009091740897FF02C080E090E090933E0576
:100F500080933D05809171089091720818161906CA
:100F600014F480E090E09093400580933F0589E879
:100F700092E00E945F1380E090E00E946F1461E0B5
:100F80008DE00E949C238091800088608093800087
:100F900010928D0010928C008091EE0380618093FE
:100FA00081001092650810926608109267081092EE
:100FB0006808C5E0D0E080E090E00E946F148FEAFE
:100FC00096E067DE64E170E080E090E00E944524F6
:100FD000219789F71092A1001092A00098E09093B9
:100FE000A1008091720082608093720023EC39E04E
:100FF0003093A9002093A8008091720082608093B2
:1010000072009093A1008091A10083608093A10061
:10101000809121018560809321019CE088E10FB6D9
:10102000F894A895809360000FBE90936000DF91C4
:10103000CF91089587E992E00E945F1381E0809349
:10104000DB0631CF1F920F920FB60F9211240BB611
:101050000F92CF92DF92EF92FF920F931F932F93F5
:101060003F934F935F936F937F938F939F93AF9330
:10107000BF93CF93DF93EF93FF938091E803909119
:10108000E903A091EA03B091EB030196A11DB11D04
:101090008093E8039093E903A093EA03B093EB03F2
:1010A000A895C091E10383E00E94012424E0C29F3F
:1010B00080011124075A184F83509240BC01990FA8
:1010C000880B990B0E94B6272BED32E64EE253E4D3
:1010D0000E9415280E94F429F8016083718382839D
:1010E0009383CF5FCB3018F4C093E10302C010921A
:1010F000E1030E943D14C0906908D0906A08E09016
:101100006B08F0906C08BC01990F880B990B0E943A
:10111000B62720E030E041E655E40E948C292AE021
:1011200037ED43E25CE30E9415289B01AC01C70147
:10113000B6010E9428296093690870936A08809319
:101140006B0890936C086091690870916A088091AF
:101150006B0890916C0820E030E04AE754E40E946C
:10116000252A18164CF08091690890916A08A09180
:101170006B08B0916C0804C080E090E0AAE7B4E48A
:101180008093690890936A08A0936B08B0936C08E9
:101190000E943D14C0908B07D0908C07E0908D0783
:1011A000F0908E07BC01990F880B990B0E94B6270F
:1011B00020E030E041E655E40E948C292AE037ED3A
:1011C00043E25CE30E9415289B01AC01C701B60114
:1011D0000E94282960938B0770938C0780938D075A
:1011E00090938E0780918F07823009F47AC028F49B
:1011F000882351F08130D1F037C1833009F4C6C063
:10120000843009F416C130C183EA96E042DD20E063
:1012100030E64AE656E40E94252A18160CF024C14E
:101220008EE992E00E945F1381E0ADC08091D30609
:101230009091D406C7E0C89FB001C99F700D1124DA
:1012400080E090E00E94B4276B017C0183EA96E085
:1012500020DD9B01AC01C701B6010E94272920E0D7
:1012600030E84BEB54E40E948C299B01AC01609167
:10127000E4037091E5038091E6039091E7030E94F7
:1012800028296093E4037093E5038093E603909329
:10129000E70383EA96E0FDDC8091D3069091D406C3
:1012A000C89FB001C99F700D112480E090E00E949A
:1012B000B4276B017C0183EA96E0EBDC9B01AC0177
:1012C000C701B6010E94272920E030E04AEF53E42D
:1012D0000E94B02787FFC8C082E080938F0760E03C
:1012E000C5C182E00E94AA206091CF067091D0060D
:1012F00080E090E00E94B42720E030EE4DE555E418
:101300000E94B02787FF27C00E9402140E94B627C0
:101310009B01AC0160E070E48CE196E40E94272917
:1013200020E030E44CE956E40E948C299B01AC019A
:101330006091E4037091E5038091E6039091E703E7
:101340000E9428296093E4037093E5038093E603E9
:101350009093E70389C068EA72E089E994E00E940B
:10136000BF1E6091E4037091E5038091E6039091C4
:10137000E70342E00E942B2162E872E089E994E0F1
:101380000E94BF1E83E080938F076EC083E00E949F
:10139000AA20C091CF06D091D006BE0180E090E097
:1013A0000E94B4279B01AC0160E070EE8DE595E4EE
:1013B0000E94272920E030E048EC52E40E948C296A
:1013C0002091E4033091E5034091E6035091E70357
:1013D0000E9428296B017C016093E4037093E5036C
:1013E0008093E6039093E7030E94021497FF10C0D6
:1013F0002DEC3CEC4CEC5DE3C701B6010E942829C2
:101400006093E4037093E5038093E6039093E7030E
:101410000E940214683E7340810591052CF580916D
:10142000D1069091D206C81BD90B269708F4FEC0AE
:101430001BC084E00E94AA2083EA96E02ADC20E018
:1014400030E44CE156E40E94B02787FF0DC080E0F5
:101450000E94D3161092E4031092E5031092E60363
:101460001092E70310928F0720E030E844E554E43F
:101470006091E4037091E5038091E6039091E703A6
:101480000E94252A18169CF482EB92E00E945F13BA
:101490001092E4031092E5031092E6031092E70322
:1014A00084E080938F0761E083E40E946D23C09005
:1014B000E403D090E503E090E603F090E70320E03A
:1014C00030E0A901C701B6010E94252A20E030E0E2
:1014D00040E05FE387FD05C0C701B6010E942829EF
:1014E00004C0C701B6010E9427290E94F429EB011C
:1014F00061E08DE00E949C23809180008860809351
:101500008000A091E203B091E3039E010E9418299C
:10151000DC01CB012AE0B695A795979587952A958A
:10152000D1F790938D0080938C008091EE038061C1
:10153000809381006091D1067091D20680E090E0A6
:101540000E94B42720E030E44CE155E40E94B0272B
:1015500087FF14C0109274081092730810926908E3
:1015600010926A0810926B0810926C0810927C0519
:1015700010927B0510923E0510923D056091CF06BA
:101580007091D00680E090E00E94B42720E030EE19
:101590004DE555E40E94252A181664F4109272084D
:1015A0001092710810927E0510927D0510924005F0
:1015B00010923F058FEA96E06CDB20918F07211196
:1015C0000EC02091AF0621110AC00E94F9296B01BB
:1015D0007C0184E795E00E945902B60108C060E0F2
:1015E00070E084E795E00E94590260E070E086E3D5
:1015F00095E00E945902FF91EF91DF91CF91BF9149
:10160000AF919F918F917F916F915F914F913F919A
:101610002F911F910F91FF90EF90DF90CF900F903F
:101620000BBE0F900FBE0F901F90189588EB92E0A5
:101630000E945F1380E090E0AAE7B4E48093690819
:1016400090936A08A0936B08B0936C084091690866
:1016500050916A0860916B0870916C0884E090E08A
:101660000E94CE2884E080938F0761E083E40E948B
:101670006D23FACE0895CF93DF93EC018881998191
:101680000E94BF1E2A813B81820F931F9B838A8306
:10169000DF91CF9108950F931F93CF93DF93CDB731
:1016A000DEB766970FB6F894DEBF0FBECDBF8C01D4
:1016B000CB011E8AFE0176962AE030E0B9010E9435
:1016C000392A90E3980F9293CB010097B9F7BF01A5
:1016D000C801D1DF66960FB6F894DEBF0FBECDBF4E
:1016E000DF91CF911F910F9108958F929F92AF92AA
:1016F000BF92EF92FF920F931F93CF93DF93CDB7DB
:10170000DEB766970FB6F894DEBF0FBECDBF7C0183
:101710001E8A8E010A5E1F4F8AE0882E912CA12C12
:10172000B12CCB01BA01A50194010E944C2A942F3F
:10173000852F605DF80162938F01A901692F782FD1
:10174000411551056105710561F7BF01C70193DFBF
:1017500066960FB6F894DEBF0FBECDBFDF91CF9176
:101760001F910F91FF90EF90BF90AF909F908F903F
:101770000895CF93DF93EC01888199810E94B81E70
:101780002A813B81820F931F9B838A83DF91CF91B4
:101790000895FF920F931F93CF93DF936115710507
:1017A00041F461ED72E0DF91CF911F910F91FF90B5
:1017B00062CF8B01EC0162E2CE01DBDFF8016191C7
:1017C0008F01662351F0E2ECF2E0F080FF20A1F3FC
:1017D0009181961751F03296F8CF62E2CE01DF91F7
:1017E000CF911F910F91FF90C4CF6CE5CE01C1DF67
:1017F0006F2DE2CF8EBD00000DB407FEFDCF8EB57C
:1018000008951F920F920FB60F9211240F900FBEE2
:101810000F901F901895CF93DF93EC016881798129
:101820008AE090E093D9009729F0FC0111821082A0
:1018300015821482EA81FB81309751F02081318139
:101840002115310511F0F901F9CF9183808302C090
:101850009B838A83DF91CF910895FC01A081B181A0
:101860008C918D3051F024F489508230B8F505C048
:10187000803219F08F3219F0089511962CC011960C
:101880008C9111978A3219F08F32D1F00895119608
:10189000B183A083A081B181CD0101969183808322
:1018A00011968C9111978823C9F08A3299F7129674
:1018B0008C9112978F3271F713960DC08A3071F2A6
:1018C000A081B181CD0101969183808311968C9185
:1018D0008111F4CF03C0B183A083C0CF08950F93CB
:1018E0001F93CF93DF931F92CDB7DEB78C0169832F
:1018F000B4DFD801ED91FC91119780816981861345
:1019000005C03196ED93FC9381E001C080E00F901B
:10191000DF91CF911F910F9108950F931F93CF9354
:10192000DF938B01FC01C281D381209759F06A813A
:101930007B81C8010E94CF2C892B21F00990D8818E
:10194000C02DF3CFCE01DF91CF911F910F9108955C
:10195000E4DFFC01892BF1F18481958183309105CD
:1019600034F48130910564F4892BA1F12CC08530C9
:10197000910524F0059739F5668123C066812DC055
:101980000680F781E02D309729F18081843721F19D
:101990008B3229F08D3221F4319691E002C03196DC
:1019A00090E060E0219180ED820F8A3040F4660F74
:1019B000862F880F880F680F6053620FF3CF99232B
:1019C00061F061950AC066817781808591850E946A
:1019D000F92903C060E001C061E0862F08959DDF12
:1019E000FC01892B09F44BC08481958183309105DA
:1019F0003CF4813091057CF4009709F447C038C06D
:101A0000853091052CF0059799F5668177812BC07B
:101A10008681978108950680F781E02D309779F1CE
:101A20008081843779F18B3229F08D3221F431961F
:101A300091E002C0319690E060E070E03AE0819180
:101A400020ED280F2A3068F4369FA001379F500DF3
:101A50001124682F880F770B60537109640F751F6D
:101A6000EECF992391F088279927861B970B08952D
:101A700066817781808591850E94F42906C080E087
:101A800090E0089581E090E00895CB010895EF92F1
:101A9000FF920F931F93CF93DF938C01DC01149679
:101AA000CD91DC911597EA80FB808E819F81E80EB5
:101AB000F91EC8010296D1DED8011296ED91FC9173
:101AC000139790819732A9F1923299F180ED890FA5
:101AD0008A3078F081EA890F8C3158F08FEB890FCA
:101AE0008A3138F09B3229F083ED890F823008F07B
:101AF00060C0F801228133812F5F3F4F33832283FF
:101B00002E813F81A9014F5F5F4F6C817D816417FA
:101B1000750740F06A817B81FB01E20FF31F5F8351
:101B20004E839083D8011296ED91FC91139790818A
:101B3000CDCF3196D8011396FC93EE931297D8012E
:101B40001296ED91FC9113972081222391F1AF0120
:101B50004F5F5F4F13965C934E931297291749F18D
:101B60002C35A9F42181A6ECB2E08C91882339F0C0
:101B7000821303C011962C9102C01296F6CF222335
:101B8000C1F03296D8011396FC93EE9312974E81D2
:101B90005F81BA016F5F7F4FEC81FD81E617F70728
:101BA00070F2EA81FB81E40FF51F7F836E8320834F
:101BB000C6CF8E819F819C012F5F3F4F4C815D81FD
:101BC0004217530748F04A815B81FA01E80FF91F79
:101BD0003F832E83108202C0E12CF12CC701DF91DC
:101BE000CF911F910F91FF90EF9008950F931F9346
:101BF000CF93DF938C01EB016BE7CE01BADDF801E7
:101C0000028113810115110591F0F8016281738140
:101C1000CE01BFDD6AE3CE01ACDDBE01C801049692
:101C200011D0F801008111810115110539F46DE71A
:101C3000CE01DF91CF911F910F919BCD6CE2CE0130
:101C400098DDE0CF2F923F924F925F926F927F92FA
:101C50008F929F92AF92BF92CF92DF92EF92FF92BC
:101C60000F931F93CF93DF93CDB7DEB766970FB671
:101C7000F894DEBF0FBECDBFDC01ED91FC91119752
:101C80003197E830F10508F0F5C11B018C01882778
:101C9000EE58FF4F8F4F0C948A2AFD01C280D380EB
:101CA000E480F580A7019601C701B6010E94B02724
:101CB000882319F061EE72E073C020E030E0A901E2
:101CC000C701B6010E94B02787FF07C06DE2C101BE
:101CD00050DDF7FAF094F7F8F09420E030E0A90135
:101CE000C701B6010E94B027882309F45CC0A70190
:101CF0009601C701B6010E942829A70196010E94FA
:101D0000B027811150C068EE72E04AC0FD01028127
:101D100013816BE5C1012DDDD80112960D911C9147
:101D200013970115110551F0B101C80102968ADF20
:101D3000F801008111810115110521F46DE5C10142
:101D400018DD98C16CE2C10114DDEBCF12968D91C4
:101D50009C9113974BDF8EC1FD0162817381C1019C
:101D600018DD88C112966D917C91139719C06DE2B0
:101D7000C101FFDCF8014281538164817581C10199
:101D8000B4DC78C1FD0182819381A481B581892B66
:101D90008A2B8B2B19F46BED72E002C066ED72E0BA
:101DA000C10169DC67C120E836E948E15BE4C701AD
:101DB000B6010E94252A87FD56C1A12CB12C00E254
:101DC00010E01A8A198AF501EA5CFD4F24893589E9
:101DD00046895789C701B6010E94252A87FD13C08D
:101DE000F501E25EFD4F2489358946895789C7018F
:101DF000B6010E9415286B017C0189899A89800FA0
:101E0000911F9A8B898B1595079594E0A91AB108B3
:101E1000A8EEAA16AFEFBA06B1F699249A9420E07C
:101E200030E0A901C701B6010E94252A1816B4F5B1
:101E30002CEA35EC47E257E3C701B6010E94B02710
:101E4000181664F19FEF991649F1B92DE4E0BE022E
:101E500050011124F501EA5FFD4F2081318142815B
:101E60005381C701B6010E94B02787FF13C0F50157
:101E7000EA5CFD4F2081318142815381C701B60167
:101E80000E9415286B017C0189899A89801B910B1E
:101E90009A8B898B159507959A94D4CFC701B60173
:101EA0000E94F9294B015C012B013C0106E080E412
:101EB00092E4AFE0B0E08B8B9C8BAD8BBE8B102F90
:101EC0000FEF010F9AE04916510461047104C8F044
:101ED0006B897C898D899E892AE030E040E050E062
:101EE0000E944C2A2B8B3C8B4D8B5E8BC301B20125
:101EF0002AE030E040E050E00E944C2A29013A01FB
:101F0000DECFC501B4010E94B4279B01AC01C7011B
:101F1000B6010E9427296B017C016B897C898D8920
:101F20009E890E94B4279B01AC01C701B6010E94A3
:101F300015282B013C010E94F9296B017C010E94AC
:101F4000B4279B01AC01C301B2010E9427299B0168
:101F5000AC010E9428290E94F929C60ED71EE81E4E
:101F6000F91E8B899C89AD89BE89C816D906EA06F7
:101F7000FB06F8F09FEF891A990AA90AB90AA989FC
:101F8000BA89AB2B99F0BAE08B169104A104B10485
:101F900068F0E989FA893196FA8BE98BC12CD12C4A
:101FA0007601812C912C5401839403C0C12CD12C37
:101FB00076012AE0422E512C612C712CC701B6010A
:101FC000A30192010E944C2A672B682B692B99F080
:101FD000012FB501A401C10188DB112351F1188A39
:101FE0004E01F0E18F0E911C54019AE0492E512CC4
:101FF000612C712C06C011165CF769017A01115031
:10200000DDCF015068F0C701B601A30192010E9423
:102010004C2A605DD4016E934D0169017A01F1CFC4
:10202000B501611B71098EE2FB018293BF01C10101
:1020300022DB89899A8997FF0AC065EE72E0C101A7
:102040001ADB69897A8971956195710909C0A98935
:10205000BA89AB2B79F065E6C1018BDB69897A8996
:10206000C10119DB07C000E210E085E0982E1A8A52
:10207000198AD5CE66960FB6F894DEBF0FBECDBFD7
:10208000DF91CF911F910F91FF90EF90DF90CF9054
:10209000BF90AF909F908F907F906F905F904F9088
:1020A0003F902F900895EF92FF920F931F93CF933D
:1020B000DF938C01EB017A0130DCFC01892B39F4D0
:1020C000C801A9DBFC01892B89F0D383C283D70126
:1020D0008D919C91A0E0B0E024E030E03583248332
:1020E00086839783A087B18781E001C080E0DF917C
:1020F000CF911F910F91FF90EF900895EF92FF9273
:102100000F931F93CF93DF938C01EB017A0105DCD2
:10211000FC01892B39F4C8017EDBFC01892B89F095
:10212000D383C283E70188819981AA81BB8128E09A
:1021300030E03583248386839783A087B18781E04D
:1021400001C080E0DF91CF911F910F91FF90EF9040
:102150000895EF92FF920F931F93CF93DF938C011B
:10216000EB017A01DADBFC01892B39F4C80153DB7E
:10217000FC01892B89F0D383C283E701888199818F
:10218000AA81BB8128E030E035832483868397834E
:10219000A087B18781E001C080E0DF91CF911F91DE
:1021A0000F91FF90EF900895EF92FF920F931F937E
:1021B000CF93DF938C01EB017A01AFDBFC01892B1C
:1021C00039F4C80128DBFC01892BF9F0D383C283E1
:1021D000D7014D915C9157FD07C0052E000C660B91
:1021E000770B84E090E009C0519541955109052E87
:1021F000000C660B770B85E090E095838483468323
:1022000057836087718781E001C080E0DF91CF91C3
:102210001F910F91FF90EF9008959F92AF92BF9200
:10222000CF92DF92EF92FF920F931F93CF93DF93A2
:1022300000D000D0CDB7DEB7D82EC92E082F192F69
:10224000F801819191918F010E94B5057C016BE7A6
:10225000C80145DB882309F43CC06DE7C8013FDBBA
:10226000811147C086E0982E8D2D9C2D10DC5C01DD
:10227000892B79F16AE3C80132DB882351F11A8294
:102280001982BE016F5F7F4F8D2D9C2D0E94F6211C
:102290008823F9F0B501C70140DB009739F4C70185
:1022A000BADA0097B1F0FC01B382A282FE01319646
:1022B000DC011496892D01900D928A95E1F76DE766
:1022C000C8010DDB811115C06CE2C80108DB81116A
:1022D000CBCF8091F30381110EC01092F0031092C6
:1022E000EF031092F2031092F10381E08093F30365
:1022F00002C0C70102C08FEE93E026960FB6F89495
:10230000DEBF0FBECDBFDF91CF911F910F91FF9028
:10231000EF90DF90CF90BF90AF909F9008959F92E5
:10232000AF92BF92CF92DF92EF92FF920F931F93E3
:10233000CF93DF93FB0131978E0F9F1FA0E0B0E09A
:102340008C0100951095EE24EA94FE2CCC24C394C5
:10235000D12CA617B70749F1FC01C3E0F695E79524
:10236000CA95E1F7E40FF51FE801CA0FDB1FC7703C
:10237000DD2720FF0AC0560102C0AA0CBB1CCA956B
:10238000E2F7E501D081CD2B0AC0570102C0AA0CAB
:10239000BB1CCA95E2F7E501C095D081CD23C0836F
:1023A0003695279511960197D4CFDF91CF911F9144
:1023B0000F91FF90EF90DF90CF90BF90AF909F90E4
:1023C0000895FF920F931F93CF93DF93EB018A0140
:1023D0009C0197FF02C0295F3F4F43E03595279549
:1023E0004A95E1F768E070E00E94392AFC01D801C3
:1023F000A20FB11D9C91C930D10504F580E020E009
:10240000FF2761E070E0482F082E000C550B4C1799
:102410005D075CF44E0F5F1FDB0102C0AA0FBB1FFC
:102420004A95E2F72A0F8F5FEECF292330E0B901FA
:1024300002C075956795EA95E2F728C0422F60E0E3
:1024400070E050E088E0F82EAE2FB0E0292F30E0A9
:102450000E2E02C0359527950A94E2F7052E02C08C
:10246000220F331F0A94E2F7620F731F8F2D8E1B0A
:10247000580FCD010897C80FD91F4150F801E40F3C
:10248000F11D9081E0E01C161D06F4F2CB01DF91F6
:10249000CF911F910F91FF9008951F93CF93DF93DA
:1024A000182FC0E1D7E060E088810E946D2383E0AF
:1024B000A1D9812F9FD980E09DD9182F61E0888113
:1024C0000E946D23812FDF91CF911F910895CF92AC
:1024D000DF92FF920F931F93CF93DF931F92CDB79D
:1024E000DEB7F82E162F042F60E080911007798355
:1024F0000E946D2382E07ED98F2D7CD9F12EC12ED2
:102500007981D72E8C2D8F19801728F4F6018191AF
:102510006F0170D9F7CF61E0809110070F90DF91C4
:10252000CF911F910F91FF90DF90CF900C946D236E
:102530001F93CF93DF93C0E1D7E060E088810E94D2
:102540006D2380EA57D980E055D9182F61E0888142
:102550000E946D23812FDF91CF911F910895CF921B
:10256000DF92FF920F931F93CF93DF931F92CDB70C
:10257000DEB7F82E162F042F60E0809110077983C4
:102580000E946D2383E036D98F2D34D9F12EC12ED0
:102590007981D72E8C2D8F19801730F480E02AD9BD
:1025A000F60181936F01F6CF61E0809110070F90E3
:1025B000DF91CF911F910F91FF90DF90CF900C94FE
:1025C0006D230F931F93CF93DF9300D01F92CDB74E
:1025D000DEB7182F10920007109201071092020721
:1025E000109203071092040744E0BE016F5F7F4F13
:1025F000B6DF8A819981482F50E065E0559547956F
:102600006A95E1F728E0929F400D511D1124052E97
:10261000000C660B770B4093010750930207609301
:1026200003077093040783FF29C092E0440F551FEE
:10263000661F771F9A95D1F78370480F511D611D52
:10264000711D762F652F542F44278B81480F511D04
:10265000611D711D762F652F542F44278C81480FE3
:10266000511D611D711D4093010750930207609336
:1026700003077093040781E0809300078FEF810FB9
:102680000CDF082F84E0810F08DF482F03FF04C010
:1026900081E080930E0702C010920E074F704093A6
:1026A000050766E077E085E0810F59DF0F900F9016
:1026B0000F900F90DF91CF911F910F910895CF93BD
:1026C000DF93BC0189E994E00E94BF1EEC0162E83F
:1026D00072E089E994E00E94BF1E8C0F9D1FDF917C
:1026E000CF910895EF92FF920F931F93CF93DF93B3
:1026F0001F92CDB7DEB7082F162F80E1E82E87E0B6
:10270000F82E60E0F701808149830E946D2385E007
:1027100071D8802F6FD8812F6DD84981842F6AD8C6
:1027200061E0F70180810F90DF91CF911F910F91B0
:10273000FF90EF900C946D23CF93C82F482F60EE3D
:102740008FE0D0DF8FE0A9DE807E91E08C1301C0A6
:1027500090E0892FCF9108950F931F93CF93DF932C
:10276000082F162FC0E1D7E060E088810E946D231A
:1027700082E040D8802F3ED8812F3CD861E088810C
:10278000DF91CF911F910F910C946D230F931F93A5
:10279000CF93DF9300D01F92CDB7DEB76130B9F48D
:1027A0002C833B838A0122273327602F6C71902F63
:1027B000937048E0649F900D112498609A8398016B
:1027C00075E0369527957A95E1F729830DC0B90113
:1027D00093E0769567959A95E1F769832295220FA4
:1027E000207E2A831C821B8244E0BE016F5F7F4FE4
:1027F0006EDE0F900F900F900F90DF91CF911F9191
:102800000F9108950F931F93E9E5F7E060E070E002
:10281000CB010191119121913191600F711F821FA4
:10282000931F27E0E138F207A1F72AE030E040E00B
:1028300050E00E946E2ACA01B9011F910F910895BC
:102840001092DB069FB7F8948091FB03882319F060
:1028500081508093FB038091FB03811105C08CB5EF
:102860008F7B8CBD109282079FBF61E085E30E9441
:102870009C2360E085E30C946D23CF92DF92EF926E
:10288000FF92C0DF0E94B62720E030E04AE754E420
:102890000E948C296B017C012091D3063091D406D3
:1028A00047E0429FC001439F900D1124BC0180E08E
:1028B00090E00E94B42720E030E04AE754E40E9410
:1028C0008C299B01AC01C701B6010E9415280E940A
:1028D000F429CB01FF90EF90DF90CF9008957F9285
:1028E0008F929F92AF92BF92CF92DF92EF92FF9220
:1028F0000F931F93CF93DF93CDB7DEB72B970FB610
:10290000F894DEBF0FBECDBF28E0EEE4F2E0DE01BA
:10291000119601900D922A95E1F72091DB06222372
:1029200009F4E7C12091BB062F5F213108F021E0B7
:102930002093BB068C012091BB0630E0AE014F5FB7
:102940005F4F64E070E080E090E0E9DCB8010F3DAB
:102950001D4010F06EED7DE0613639E0730710F434
:102960006EED7DE0685E734080E090E00E94B427E9
:102970009B01AC010E9428290E94F9299B01AE010C
:102980004F5F5F4F6DE070E088E090E0C8DC109230
:10299000000780E590E0A0E0B0E08093010790930D
:1029A0000207A0930307B093040788E0809305070C
:1029B000FE0131965E0189E0A80EB11CA6E0B7E0E9
:1029C00081918D93EA15FB05D9F7E12CF12C50E3A9
:1029D000C52E60E4962E70E5872EE3E07E2E7A0CFD
:1029E000C9869A868B868501F801D1908F018D2D3D
:1029F00054DD982F987083FD03C011E01D0D04C0B5
:102A00007012F2CF10E092E0FFEFEF1AFF0A92305F
:102A100061F422E3E216F10419F781E08093810763
:102A20009091FC06911150C05EC032E3E316F104B0
:102A3000A1F34091050766E077E085E0810F47DD6F
:102A400080910E07813029F480910507806480937E
:102A500005076091050784E0810F7EDE2091010764
:102A600030910207409103075091040760910007DD
:102A7000812F8CDE48E068E08FEF810F33DE42E388
:102A8000E42EF12C812F09DD83FFC7CF81E0E81A06
:102A9000F108C1F7C2CF8091FD0694E0899FF00153
:102AA0001124E554F94F40910107509102076091BC
:102AB00003077091040741A352A363A374A38F5F1C
:102AC0008093FD068830A8F08091FC06882309F4E5
:102AD00010C10091FD0610E03CEDC32E36E0D32E70
:102AE000E12CF12C15C0109281078093FC06109206
:102AF000FD061EDD837041F3C9C0F60181919191FD
:102B0000A191B1916F01923039F0FFEFEF1AFF0AF6
:102B1000E016F10694F3B5C049E157E061E070E0DA
:102B200083E090E04EDC21E0892B09F420E0209343
:102B3000BD0649E157E061E070E082E090E041DCF1
:102B400021E0892B09F420E02093BE0649E157E0FB
:102B50006DE070E08BE190E034DCBC0180E090E05F
:102B60000E94B42720E030E040E05FE30E94152897
:102B700020E030E04AE754E40E9428290E94F92925
:102B80007093D2066093D10649E157E06DE070E0A2
:102B90008BE290E016DCBC0180E090E00E94B4275C
:102BA00020E030E040E05FE30E94152820E030E0C4
:102BB0004AE754E40E9428290E94F9297093D0061C
:102BC0006093CF0649E157E06DE070E08BE390E061
:102BD000F8DBBC0180E090E00E94B42720E030E008
:102BE00040E05FE30E94152820E030E04AE754E42B
:102BF0000E9428290E94F9297093D4066093D30675
:102C000049E157E064E070E084E090E0DADB809333
:102C1000BC0649E157E063E070E088E190E0D1DB79
:102C20008230F1F449E157E068E070E088E090E03C
:102C3000C8DBBC0180E090E00E94B42720E030E0D7
:102C400040E05FE30E94152820E030E040E252E4DB
:102C50000E9427290E94F9297093D6066093D50611
:102C600049E157E063E070E088E290E0AADB8093FE
:102C7000C00649E157E061E070E08AE390E0A1DB43
:102C800044CF1092FD061092FC0633C00091FD0661
:102C900010E0C80123E0880F991F2A95E1F79C01F5
:102CA000275E384F790144DC80FF05C081E689DC6E
:102CB00040E061E006C081FF06C081E782DC40E0C1
:102CC00062E08CE20FDDF801EF5EF84F80910507BE
:102CD0008083F701A6E0B7E08091050790E09F01AF
:102CE0002E193F09281739070CF0D5CE8D91819305
:102CF000F3CF2B960FB6F894DEBF0FBECDBFDF919A
:102D0000CF911F910F91FF90EF90DF90CF90BF90E8
:102D1000AF909F908F907F900895E091C005F091C3
:102D2000C1058E179F07F0F53091C505332361F07B
:102D3000639FB0011124672F439FA0011124452FE9
:102D4000239F90011124232F3091CB055091C8056A
:102D5000E091C605F091C705351308C0DC01AA0F44
:102D6000BB1F8A0F9B1F8E0F9F1F0AC0880F991FC2
:102D7000880F991F8E0F9F1FFC01E30FF11D10821A
:102D80003091C805FC01E30FF11D60833091C90546
:102D9000FC01E30FF11D40833091CA05FC01E30FF4
:102DA000F11D208308951F93CF93DF938093BA057D
:102DB00012E3819F102D1124C0E0D0E08091C00566
:102DC0009091C105C817D90738F420E040E0612F81
:102DD000CE01A3DF2196F2CF8EEB95E0DF91CF916C
:102DE0001F910C94781FCF93DF938093BB05C0E0B5
:102DF000D0E08091C0059091C105C817D907C8F4EB
:102E00008091BB056091BA0592E3699FB0011124DE
:102E10009FEF899F600D711D11246F3F710519F09F
:102E200014F06FEF70E020E040E0CE0176DF2196F5
:102E3000E0CF8EEB95E0DF91CF910C94781F0E944C
:102E40008D0C21E0892B09F420E0822F08954F9208
:102E50005F926F927F928F929F92AF92BF92CF922A
:102E6000DF92EF92FF920F931F93CF93DF93CDB733
:102E7000DEB7C55DD1400FB6F894DEBF0FBECDBF43
:102E800080E091E08C0F9D1F0896CE5FDE4F998306
:102E90008883C250D14088EC90E0CC5FDE4F9983AC
:102EA0008883C450D140CA5FDE4F19821882C65051
:102EB000D1408CE692E0C050DF4F99838883C050A8
:102EC000D14064E670E080E090E00E94452488EC08
:102ED000EDE9F7E0DF011D928A95E9F7809191070E
:102EE000882329F061EF72E0CF010E94C42C809109
:102EF000AF06882331F06BEF72E08DE997E00E9416
:102F0000C42C1091900711110DC08FEA96E00E9419
:102F1000490620E030E0A9010E94252A18160CF489
:102F200018C516C06091D1067091D20680E090E07D
:102F30000E94B42720E030E44CE155E40E94B02721
:102F400087FF06C061E173E08DE997E00E94C42C21
:102F50006091CF067091D00680E090E00E94B42787
:102F600020E030EE4DE555E40E94252A181634F491
:102F700060E273E08DE997E00E94C42C80919C0789
:102F8000882331F06EE273E08DE997E00E94C42C53
:102F90008FE00E944523019719F411111AC00DC04A
:102FA00083EA96E00E94490620E030E64AE656E4CD
:102FB0000E94252A18168CF30CC08FEA96E00E9416
:102FC000490620E030E0A9010E94B027882309F4D7
:102FD000C3C48FE00E944523019721F4809190079C
:102FE000813021F0809191078B3028F080918F07FC
:102FF00081110E94FB0582E10E944523892B09F47F
:10300000C0C38CEF93E029D5892B09F44AC260ED47
:1030100072E0CE0101966DD60E94FF2297FD25C079
:103020008A30910511F1C053DE4F8883C05DD140D5
:10303000CF52DE4F1882C15DD1400D811E810F5FDE
:103040001F4FB801CE0101962DD6882329F329817F
:103050003A818D819E81BE0160537E4F820F931F06
:103060000E94D82C1E830D83D7CF8091B2059091FA
:10307000B3050097C9F069817A816115710591F0F6
:103080004091B4055091B5052D813E8142175307FB
:1030900048F00E94D82C8D819E819093B705809333
:1030A000B60518C00E943B2B89819A819093B30585
:1030B0008093B2058B819C819093B5058093B40574
:1030C0008D819E819093B7058093B6051A821982EF
:1030D0001C821B821E821D8289819A810E943B2B49
:1030E0008091B2059091B305009711F480ED92E0C4
:1030F000E0E0F1E0EC0FFD1FFA83E9839C838B8312
:10310000FE83ED838AE08F83CE01019686D88C0101
:10311000DC018D919C91892B21F481E080939C07A7
:10312000C0C110929C0769E373E0C80188DE882360
:1031300049F069E373E0C8010E94EF0C90937408B2
:1031400080937308809173089091740897FF02C070
:1031500080E090E090937C0580937B056DE373E0C5
:10316000C8016DDE882349F06DE373E0C8010E9459
:10317000EF0C909372088093710880917108909180
:1031800072081816190614F480E090E090937E05FA
:1031900080937D0561E473E0C80151DE882381F0EE
:1031A00010926508109266081092670810926808DD
:1031B00010928B0710928C0710928D0710928E0739
:1031C0006BE473E0C8013BDE882319F081E0809353
:1031D000910764E573E0C80132DE882309F43DC13C
:1031E00064E573E0C8010E948D0CFC01892B09F491
:1031F00015C184819581833091053CF4813091051E
:10320000C4F4892B09F40AC104C18530910554F036
:10321000059709F0FEC066817781808591850E94BF
:10322000B427F5C066817781808591850E94B42797
:103230000CC10680F781E02D309709F4EFC0808142
:103240008B3231F08D3229F43196DD24D39402C0D3
:103250003196D12C8081843709F4E4C08F7D8E347F
:1032600009F4E5C0893409F484C05F01E12C20E051
:1032700030E0A901F501D501FD905D0180ED8F0DD4
:103280008A30E8F42C3CBCEC3B07BCE04B07510512
:10329000A4F4AAE0B0E00E940E292F2DFF0C330BFE
:1032A000205331092901330F660877089B01AC01CF
:1032B000240D351D461D571DDDCFE394DBCFBEE247
:1032C000FB1228C05F018FEFA81AB80AF501D501DB
:1032D000FD905D0180ED8F0D8A30E0F42C3C9CEC7C
:1032E00039079CE0490751058CF7AAE0B0E00E943D
:1032F0000E292F2DFF0C330B205331092901330FD9
:10330000660877089B01AC01240D351D461D571D2D
:10331000EA94DCCF80818F7D0E2C000CFF08853471
:10332000D1F581818D3219F43296B1E006C08B322D
:1033300011F0319601C03296B0E080E090E06AE092
:10334000C62EA19160ED6A0F6A30F8F4C89EB001F4
:10335000C99E700D11248A2FAA0F990BC097860F52
:10336000971FBC016E0D7F1D6732710554F3B111BB
:1033700008C0DD2009F465C060E070E080E89FEFE0
:1033800064C0DD2009F44AC057C0BB2331F09195D9
:103390008195910902C080E090E0E80EF91ECA0113
:1033A000B9010E94B6271E141F04B4F4C12CE0FE1C
:1033B0000CC0B4E0CB9EF0011124EA5CFD4F2081EB
:1033C0003181428153810E941528F594E794C3947A
:1033D000E114F10461F719C0F194E194F108C12CF2
:1033E000E114F10491F0E0FE0CC024E0C29EF00173
:1033F0001124E25EFD4F20813181428153810E9480
:103400001528F594E794C394EBCFDD20F1F09058A4
:103410001CC0668177818085918517C060E070E06F
:10342000CB0113C060E070E080E89FE30EC060E075
:1034300070E080EC9FE709C060E070E080E090E819
:1034400004C060E070E080E89FE7609369087093D3
:103450006A0880936B0890936C086DE573E0C8016F
:10346000EEDC882331F06DE573E0C8010E94A80C02
:103470009ADC63E673E0C801E2DC882391F063E63E
:1034800073E0C8010E94A80C813031F040F0823016
:1034900041F40E94820605C00E94DD0502C00E9420
:1034A000FB050091B8051091B90569E673E0C80104
:1034B0000E948D0CFC01892B51F4C8010E940B0C59
:1034C000FC01892BA1F089E693E0938382838091AC
:1034D000870790918807A0918907B0918A0728E013
:1034E00030E03583248386839783A087B187C5D94D
:1034F0009A838983AE014F5F5F4F6FE673E08091DF
:10350000B8059091B9050E94D41043E857E065E7EB
:1035100073E08091B8059091B9050E94A91060915F
:10352000650870916608809167089091680820E0AE
:1035300030E04AE754E40E948C2969837A838B83C4
:103540009C83AE014F5F5F4F66E473E08091B805E6
:103550009091B9050E947E1060916D0870916E087F
:1035600080916F089091700820E030E04AE754E4C1
:103570000E948C2969837A838B839C83AE014F5F81
:103580005F4F6BE773E08091B8059091B9050E9499
:103590007E1045ED56E06FE773E08091B80590919D
:1035A000B9050E9453102ED96B017C010091B8051A
:1035B0001091B90564E873E0C8010E948D0CFC010C
:1035C000892B51F4C8010E940B0CFC01892BC9F016
:1035D00084E893E093838283F7FC03C084E090E067
:1035E0000AC0F094E094D094C094C11CD11CE11C9A
:1035F000F11C85E090E095838483C682D782E086C3
:10360000F1862091D3063091D40647E0429FC00155
:10361000439F900D11249A838983AE014F5F5F4FC2
:103620006AE873E08091B8059091B9050E94531043
:103630008091CF069091D0062091D1063091D2068C
:10364000821B930B9A838983AE014F5F5F4F60E9C2
:1036500073E08091B8059091B9050E94531049E636
:1036600058E067E573E08091B8059091B9050E9434
:10367000A91043E758E069E373E08091B8059091A1
:10368000B9050E94D41041E758E06DE373E08091E2
:10369000B8059091B9050E94D41084E795E00E9486
:1036A00010066B017C0186E395E00E9410066C0D0C
:1036B0007D1D8E1D9F1D0E94B62720E030E040E05A
:1036C0005FE30E94152869837A838B839C83AE0114
:1036D0004F5F5F4F67E973E08091B8059091B9053E
:1036E0000E947E1080919D078823E1F1E090B8054B
:1036F000F090B90565EF72E0C7010E948D0C8C0156
:10370000892B69F4C7010E940B0C8C01892B51F1A4
:1037100085EF92E0D80113969C938E931297F70150
:1037200080819181EDE9F7E001900020E9F79F01A8
:103730002D5937407901DC01ED91FC910190F08128
:10374000E02DB90119956C01009761F0A7016DE9B1
:1037500077E00E94BB2C82E090E0F801958384839F
:10376000D782C6828091B8059091B9052CEF33E0DD
:103770003A8329831C821B82BE016F5F7F4F0E94A8
:10378000F60D80919007882349F18091D1069091A0
:10379000D2060196A4D88091BB0690E02091BC0689
:1037A000821B910997FF03C0919581959109039719
:1037B0009CF06091D3067091D40680E090E04AE0DE
:1037C00008D562E872E089E994E0D9D28091910746
:1037D0008F5F8093910702C01092910784E795E074
:1037E0000E9410066B017C0186E395E00E941006A2
:1037F0006C0D7D1D8E1D9F1D0E94B62720E030E0C0
:1038000040E05FE30E94152820E030E84BE355ECF0
:103810000E94B02787FF02C081E005C08091BB05F0
:10382000813011F480E0DFDA80919A0790919B0754
:103830006AE070E00E94392A892B09F069C0809102
:10384000960790919707A0919807B0919907CE524B
:10385000DE4F88839983AA83BB83C25DD1404090A9
:1038600092075090930760909407709095078FEAA5
:1038700096E00E9449064B015C01D090CF06C090B3
:10388000D0060E940214162F072FF82EE92ECE52D2
:10389000DE4F688179818A819B81C25DD1400E941F
:1038A000F4299F938F937F936F93C301B2010E947A
:1038B000F4299F938F937F936F93C501B4010E9466
:1038C000F4297F936F93CF92DF928091D3069091EA
:1038D000D40647E0489F9001499F300D11243F9343
:1038E0002F93EF92FF920F931F938CE993E09F9396
:1038F0008F938E010F5F1F4F1F930F930E94DF2C3A
:10390000C8010E945F130FB6F894DEBF0FBECDBF93
:1039100080919A0790919B07019690939B078093C3
:103920009A07CB52DE4F0FB6F894DEBF0FBECDBF65
:10393000DF91CF911F910F91FF90EF90DF90CF908B
:10394000BF90AF909F908F907F906F905F904F90BF
:10395000089566EB73E0F8CA85EC93E00E945F136C
:103960000E94820636CB0895CF92DF92EF92FF92AB
:103970000F931F93CF93DF936C017A018B01C0E00B
:10398000D0E0CE15DF0589F0D8016D918D01D6010B
:10399000ED91FC910190F081E02DC6011995892BE4
:1039A00011F47E0102C02196ECCFC701DF91CF91C7
:1039B0001F910F91FF90EF90DF90CF900895FC0141
:1039C000A089B1898C91A689B78982FD0FC09C918D
:1039D000818D8F5F8F73228D821749F0218DDF01DA
:1039E000A20FB11D5D969C93818F08958C910895CF
:1039F000089580E090E00895FC01538D448D252FBB
:103A000030E0842F90E0821B930B541710F0CF9678
:103A1000089501970895FC01918D828D981761F0AA
:103A2000828DDF01A80FB11D5D968C91928D9F5FF5
:103A30009F73928F90E008958FEF9FEF0895FC01A0
:103A4000918D828D981731F0828DE80FF11D858D53
:103A500090E008958FEF9FEF0895FC01918D228DE6
:103A6000892F90E0805C9F4F821B91098F7399276B
:103A700008958CEF93E0F1DF21E0892B09F420E039
:103A8000822F089589E994E0E8DF21E0892B09F489
:103A900020E0822F0895FC01848DDF01A80FB11D65
:103AA000A35ABF4F2C91848D90E001968F73992774
:103AB000848FA689B7892C93A089B1898C91806461
:103AC0008C93938D848D981306C00288F389E02D22
:103AD00080818F7D80830895EF92FF920F931F93D3
:103AE000CF93DF93EC0181E0888F9B8D8C8D9813B1
:103AF00005C0E889F989808185FD23C0F62E0B8DEC
:103B000010E00F5F1F4F0F731127E02E8C8DE8120E
:103B10000BC00FB607FCFACFE889F989808185FFD1
:103B2000F5CFCE01B8DFF2CF8B8DFE01E80FF11D8E
:103B3000E35AFF4FF0820B8FEA89FB898081806214
:103B400007C0EE89FF896083E889F98980818064F4
:103B5000808381E090E0DF91CF911F910F91FF90E2
:103B6000EF900895CF93DF93EC01888D8823C1F007
:103B7000EA89FB89808185FD05C0A889B9898C9176
:103B800086FD0EC00FB607FCF5CF808185FFF2CF12
:103B9000A889B9898C9185FFEDCFCE017CDFE8CF74
:103BA000DF91CF91089580E090E0892B19F06ADFD2
:103BB000811120C080E090E0892B41F080E090E00E
:103BC000892B21F00E940000811117C080E090E055
:103BD000892B19F04EDF811113C080E090E0892B12
:103BE000A1F080E090E0892B81F00E94000081111B
:103BF0000AC008950E940000DDCF0E940000E6CFB9
:103C00000E940000EACF0C94000008950E94B72C97
:103C10001F920F920FB60F9211242F933F938F9301
:103C20009F93AF93BF9380917A0890917B08A09166
:103C30007C08B0917D083091750823E0230F2D3763
:103C400020F40196A11DB11D05C026E8230F0296A0
:103C5000A11DB11D2093750880937A0890937B086D
:103C6000A0937C08B0937D088091760890917708A6
:103C7000A0917808B09179080196A11DB11D80939B
:103C8000760890937708A0937808B0937908BF914D
:103C9000AF919F918F913F912F910F900FBE0F90F9
:103CA0001F9018950F931F93CF93DF93EC0188819A
:103CB0009981009729F02A813B812617370788F4DC
:103CC0008B016F5F7F4F0E94D32B009761F0998328
:103CD00088831B830A832C813D81232B11F4FC01F3
:103CE000108281E001C080E0DF91CF911F910F91A0
:103CF0000895EF92FF920F931F93CF93DF93EC0100
:103D0000198218821B821A821D821C82611571051C
:103D100041F18B01FB0101900020E9F731977F0110
:103D2000E61AF70AB701BEDF2881398181110DC07B
:103D30002115310519F0C9010E943B2B1982188207
:103D40001D821C821B821A820CC0FD82EC82B8018B
:103D5000C901DF91CF911F910F91FF90EF900C94CB
:103D6000D82CDF91CF911F910F91FF90EF90089584
:103D7000DC01ED91FC910190F081E02D1994611529
:103D8000710579F0FB0101900020E9F73197AF014F
:103D9000461B570BDC01ED91FC910280F381E02D75
:103DA000199480E090E008951F920F920FB60F9241
:103DB00011240BB60F922F933F934F935F936F9302
:103DC0007F938F939F93AF93BF93EF93FF938CEF6A
:103DD00093E061DEFF91EF91BF91AF919F918F9141
:103DE0007F916F915F914F913F912F910F900BBEFB
:103DF0000F900FBE0F901F9018951F920F920FB645
:103E00000F9211240BB60F922F933F934F935F9312
:103E10006F937F938F939F93AF93BF93EF93FF9392
:103E20008CEF93E0CCDDFF91EF91BF91AF919F912B
:103E30008F917F916F915F914F913F912F910F9053
:103E40000BBE0F900FBE0F901F9018951F920F92F0
:103E50000FB60F9211240BB60F922F933F934F93EF
:103E60005F936F937F938F939F93AF93BF93EF93E2
:103E7000FF9389E994E00FDEFF91EF91BF91AF913D
:103E80009F918F917F916F915F914F913F912F9172
:103E90000F900BBE0F900FBE0F901F9018951F92A2
:103EA0000F920FB60F9211240BB60F922F933F93E0
:103EB0004F935F936F937F938F939F93AF93BF9332
:103EC000EF93FF9389E994E07ADDFF91EF91BF9141
:103ED000AF919F918F917F916F915F914F913F91A2
:103EE0002F910F900BBE0F900FBE0F901F90189543
:103EF000CF92DF92EF92FF920F931F93CF93DF93B6
:103F0000CDB7DEB729970FB6F894DEBF0FBECDBF91
:103F10008C01DC0118968D919C911997892B09F4DD
:103F2000A1C08ED4F801C684D784E088F188DC0172
:103F3000CB018C199D09AE09BF098C329140A105B6
:103F4000B10578F3F894D80114968D919C9115974A
:103F50009A8389831896ED91FC9119977F01BFEFA1
:103F6000EB1AFB0A80818987F80190810288F38926
:103F7000E02DD80154968C91992309F430C090819A
:103F8000982B98879081809589238F838F818C834C
:103F900088E08B8358856F8149853B812C8189819D
:103FA0009A81D701508347FD252F3A952083262FEC
:103FB00039F0441F00C000006083000000C0F2CF51
:103FC00038E04D9160830000019761F7D801539666
:103FD000FC93EE93529749873B832C833AC09081A0
:103FE000982B98879081809589238F838F818E83EA
:103FF00088E08D8358856F8149853D812E81898137
:104000009A81D701508347FD252F00C000C020832F
:1040100000C000C000C000C000C060830000262FA8
:104020003A9541F0441F000000C000C000C000C02D
:1040300000C0E8CF38E04D9100C0608300C0019718
:1040400009F7D8015396FC93EE93529749873D8325
:104050002E839A8389837894F3D3F80166877787D0
:10406000808B918B29960FB6F894DEBF0FBECDBF23
:10407000DF91CF911F910F91FF90EF90DF90CF9044
:104080000895CF93DF93EC0188859985009711F00F
:104090000E943B2B8E8187FD04C060E0DF91CF91B1
:1040A0004BC3DF91CF91089590E0FC013197E2314D
:1040B000F10508F04EC08827E658FF4F8F4F0C944B
:1040C0008A2A809180008F7703C0809180008F7D45
:1040D00080938000089580918000877FF9CF84B518
:1040E0008F7702C084B58F7D84BD08958091B00024
:1040F0008F7703C08091B0008F7D8093B0000895CA
:10410000809190008F7707C0809190008F7D03C0D1
:1041100080919000877F8093900008958091A00007
:104120008F7707C08091A0008F7D03C08091A00091
:10413000877F8093A0000895809120018F7707C02A
:10414000809120018F7D03C080912001877F809323
:10415000200108951F93CF93DF93182F90918B0820
:10416000911104C081E080938A0804C0963911F44B
:1041700010928A0880918A08882331F09F5F90937B
:104180008B08C0E0D0E010C09150F9CF1330A1F0FF
:104190001430B1F0123039F420918B0840E060E027
:1041A000CE010E948D1621968091C0059091C10587
:1041B000C817D90758F307C020E040918B08EFCF0C
:1041C00020E046E9ECCF8EEB95E0DF91CF911F9197
:1041D0008FCE8F929F92AF92BF920F931F93CF93E8
:1041E000DF93CDB7DEB7A1970FB6F894DEBF0FBE51
:1041F000CDBF19A2423008F44AE08E010F5D1F4F77
:10420000842E912CA12CB12CA50194010E944C2A42
:10421000E62FB901CA0101501109EA3014F4E05D3A
:1042200001C0E95CD801EC93232B242B252B61F7EB
:10423000B80189E994E0A3DDA1960FB6F894DEBF3A
:104240000FBECDBFDF91CF911F910F91BF90AF9067
:104250009F908F9008954F925F926F927F928F926E
:104260009F92AF92BF92CF92DF92EF92FF926B013B
:104270007C01B42E9B01AC010E94292A882319F0ED
:1042800063ED73E026C026013701E89477F82FEF3D
:104290003FEF4FE75FE7C301B2010E94292A811176
:1042A0000CC02FEF3FEF4FE75FE7C301B20158D6D5
:1042B00018161CF467ED73E00CC02FEF3FEF4FE7CB
:1042C0005FE4C701B6010E94252A18168CF46BED35
:1042D00073E089E994E0FF90EF90DF90CF90BF907A
:1042E000AF909F908F907F906F905F904F9047CD51
:1042F0002FEF3FEF4FE75FECC701B60131D687FDE7
:10430000E6CF20E030E0A901C701B60129D687FF3A
:104310000AC06DE289E994E02BDD4C01F7FAF094D4
:10432000F7F8F09402C0812C912CA12C60E070E091
:1043300080E09FE3AB1439F020E030E040E251E44C
:10434000EBD7A394F7CF9B01AC01C701B60180D78F
:104350002B013C010E94F9296B017C0105D69B01D0
:10436000AC01C301B20173D72B013C014AE0C70184
:10437000B6012FDF7C01E80CF91CBB2031F06EE2A6
:1043800089E994E0F5DCE80EF91EDB2CDD2001F173
:1043900020E030E040E251E4C301B20146D62B01F7
:1043A0003C010E94F9294B01A12CB12C4AE0C50126
:1043B000B4010FDFE80EF91EC501B401D5D59B018C
:1043C000AC01C301B20143D72B013C01DA94DECF2B
:1043D000C701FF90EF90DF90CF90BF90AF909F907C
:1043E0008F907F906F905F904F9008959F92AF92C3
:1043F000BF92CF92DF92EF92FF920F931F93CF93D2
:10440000DF9300D000D0CDB7DEB7FC0196819923B1
:1044100009F4E1C06B017F01915096835F0182E056
:10442000A80EB11CC5010E942D0CD7011296ED916A
:10443000FC91139780818B3521F08B3709F498C05C
:10444000A2C0F70100811181B80184E090E00E94D0
:10445000A605009751F0DC0111961C930E9313965C
:104460001C921E9212978C0111C0809182088111BA
:104470000BC010927F0810927E0810928108109253
:10448000800881E0809382080EE718E06BE5C501A3
:104490000E946F0C882309F44BC06DE5C5010E9492
:1044A0006F0C811156C086E0982E1A821982BE01C7
:1044B0006F5F7F4FC7019ADF8823D1F1F8016081D8
:1044C000718188E090E00E94A605DC01892B39F01B
:1044D00011961C921E9213961C921E921297F8012E
:1044E000228133812115310551F0F90180819181BB
:1044F000009711F09C01F9CFB183A08303C0F801AC
:10450000B383A2831097A1F0FE0131961296892DF4
:1045100001900D928A95E1F76DE5C5010E946F0C3F
:10452000811117C06CE2C5010E946F0C8111BDCFD3
:104530008091820881110BC010927F0810927E0832
:10454000109281081092800881E0809382080EE723
:1045500018E0D8018D919C91892B11F410E033C0A3
:1045600086E090E0F60191838083138302832AC062
:10457000C7010E940D11DC012D913C91232B71F399
:1045800027E030E01AC011E0873219F0823209F0DA
:1045900010E0C7010E94470D009701F3112359F065
:1045A00022E030E0D60111963C932E9313969C9313
:1045B0008E93129708C021E030E0F601318320830A
:1045C0009383828311E0D70116968C9116978F5FA3
:1045D00016968C9301C010E0812F26960FB6F894A2
:1045E000DEBF0FBECDBFDF91CF911F910F91FF9026
:1045F000EF90DF90CF90BF90AF909F9008952FB72E
:10460000F89480917A0890917B08A0917C08B091F1
:104610007D082FBF8093040490930504A0930604A3
:10462000B0930704E091FC03F091FD030284F3854D
:10463000E02D8CEF93E0199597FF26C02FB7F894E3
:1046400080917A0890917B08A0917C08B0917D08B8
:104650002FBF4091040450910504609106047091AD
:104660000704841B950BA60BB70B409100045091D7
:104670000104609102047091030484179507A60752
:10468000B70780F28FEF9FEF0895CF93DF93282F26
:1046900030E0F901EE50FE4F8491F901E85EFE4FE3
:1046A000D491F901E858FE4FC491CC2389F08111CF
:1046B000FBDCEC2FF0E0EE0FFF1FE852FE4FA59160
:1046C000B491EC91ED2381E090E021F480E002C010
:1046D00080E090E0DF91CF9108951F93CF93DF9317
:1046E000282F30E0F901EE50FE4F8491F901E85E89
:1046F000FE4FD491F901E858FE4FC491CC23C1F08C
:10470000162F8111D1DCEC2FF0E0EE0FFF1FE25AE3
:10471000FE4FA591B4918FB7F894111105C09C91EB
:10472000ED2FE095E92302C0EC91ED2BEC938FBFC8
:10473000DF91CF911F910895CF93DF9390E0FC011B
:10474000E85EFE4F2491FC01E858FE4F84918823D7
:1047500061F190E0880F991FFC01E254FE4FC59172
:10476000D491FC01E25AFE4FA591B491611109C0A8
:104770009FB7F8948881209582238883EC912E231B
:104780000BC0623061F49FB7F8943881822F809516
:1047900083238883EC912E2B2C939FBF06C08FB769
:1047A000F894E8812E2B28838FBFDF91CF91089555
:1047B000EF920F93CF93DF93FC01862FD42FC22F5C
:1047C0006083418322830383E48228E230E03683DE
:1047D000258361E0B1DF61E0802FAEDF60E0802FF4
:1047E0007CDF61E08D2FA8DF60E08D2F76DF61E058
:1047F0008C2FA2DF60E08C2FDF91CF910F91EF9093
:104800006CCF863308F0865390917B00282F287058
:10481000977F922B90937B008770806480937C00BD
:1048200080917A00806480937A0080917A0086FD7E
:10483000FCCF809178002091790090E0922B089530
:104840003FB7F8948091760890917708A091780806
:10485000B091790826B5A89B05C02F3F19F00196A5
:10486000A11DB11D3FBFBA2FA92F982F8827820FF6
:10487000911DA11DB11DBC01CD0142E0660F771F46
:10488000881F991F4A95D1F708958F929F92AF92F2
:10489000BF92CF92DF92EF92FF926B017C01D0DF4B
:1048A0004B015C01C114D104E104F104E9F0C8DF5B
:1048B000DC01CB0188199909AA09BB09883E9340FC
:1048C000A105B10578F321E0C21AD108E108F10889
:1048D00088EE880E83E0981EA11CB11CC114D1047F
:1048E000E104F10421F7DECFFF90EF90DF90CF904D
:1048F000BF90AF909F908F9008958091B205909156
:10490000B305B9D68EEB95E0BCCBCF93DF93CDB793
:10491000DEB765970FB6F894DEBF0FBECDBF10921D
:10492000FF031092FE0348EE53E060E070E0409316
:1049300000045093010460930204709303048AE519
:1049400092E09093FD038093FC0325ED30E03093DB
:1049500009042093080424ED30E030930B042093E5
:104960000A0420ED30E030930D0420930C0421ED77
:1049700030E030930F0420930E0422ED30E03093AA
:1049800011042093100426ED30E03093130420939B
:10499000120410921504109216041092170410922B
:1049A000180410929C0410929B0440939D04509311
:1049B0009E0460939F047093A00490939A04809344
:1049C000990485EC90E09093A6048093A50484EC70
:1049D00090E09093A8048093A70480EC90E09093DB
:1049E000AA048093A90481EC90E09093AC04809396
:1049F000AB0482EC90E09093AE048093AD0486EC1F
:104A000090E09093B0048093AF041092B20410929F
:104A1000B3041092B4041092B5048EE092E0909327
:104A2000FF068093FE0685E38093100761E084DE35
:104A300061E08091100751DE1092B00640E050E036
:104A400060E87FE34093B1065093B2066093B306EB
:104A50007093B4068FEF93E09093B6068093B506FB
:104A600024E02093A4064093A5065093A6066093E5
:104A7000A7067093A8069093AA068093A9068BEDCB
:104A800095E09093D6058093D50588EC90E09093BF
:104A9000D8058093D7051092DA051092D9058CE6D7
:104AA00092E09093D4058093D3051092BD0581E0E8
:104AB0008093BE051092BF051092C1051092C005EB
:104AC0001092C3051092C2059FEF9093C4051092F7
:104AD000C5051092C7051092C6058093C8051092AF
:104AE000C90592E09093CA058093CB051092CC053E
:104AF0001092CD051092CE051092CF051A8218861D
:104B00001F86188A198A1A8A8E878B871C869D872A
:104B100089838EE490E09E838D8318D59A87898758
:104B2000009751F02EE4FC0111922A95E9F78AE1F1
:104B300090E09C838B8304C01E821D821C821B829A
:104B400087E18F838A81882331F061E087E1F4DD9A
:104B500060E087E1C2DDEFE8F1E0E491F0E0EE0F24
:104B6000FF1FE25AFE4F859194919C8B8B8BEFE255
:104B7000F1E0E491ED8B85E1FE013196AEEBB5E01D
:104B800001900D928A95E1F7CE0101967ADA83EDD4
:104B900095E00E94B5059093B9058093B80560ED46
:104BA00072E082EB95E0A5D810927405109236055C
:104BB00065960FB6F894DEBF0FBECDBFDF91CF91E3
:104BC0000895789484B5826084BD84B5816084BD85
:104BD00085B5826085BD85B5816085BD80916E009B
:104BE000816080936E0010928100809181008260CC
:104BF0008093810080918100816080938100809109
:104C000080008160809380008091B10084608093F7
:104C1000B1008091B00081608093B00080919100DC
:104C200082608093910080919100816080939100D7
:104C3000809190008160809390008091A1008260BB
:104C40008093A1008091A10081608093A100809158
:104C5000A00081608093A0008091210182608093F8
:104C600021018091210181608093210180912001A7
:104C700081608093200180917A00846080937A0023
:104C800080917A00826080937A0080917A008160BE
:104C900080937A0080917A00806880937A001092E5
:104CA000C10082E0E82E07E025E046E06BE084E703
:104CB00095E07EDDEE24E39404E022E043E06CE046
:104CC00086E395E075DD61E084E436DD60E084E450
:104CD00004DD60E080E330DD61E08EE22DDD60E048
:104CE0008EE2FBDC61E08AE227DD61E08AE2F5DC4E
:104CF00061E08DE021DD61E08CE01EDD8091C40586
:104D000087FD06C061E018DD60E08091C405E5DC48
:104D1000C1E0C093BF058EEB95E0EAD868EC70E087
:104D200082EB95E00E94521E0FB6F894A8958091F0
:104D30006000886180936000109260000FBE88EA76
:104D400091E6909374088093730888E59EE99093A8
:104D500072088093710888E090E01BD260936D0820
:104D600070936E0880936F089093700884E090E0D1
:104D700010D26093690870936A0880936B089093CF
:104D80006C0880E090E005D2609365087093660837
:104D90008093670890936808E091A904F091AA04B1
:104DA00022E02083E091A504F091A6041082E09116
:104DB000A704F091A80480E180831092B104E091EF
:104DC000AD04F091AE0496E09083E091AB04F091D5
:104DD000AC04808180618083E091AB04F091AC04ED
:104DE000808188608083E091AB04F091AC04808185
:104DF00080688083E091AB04F091AC0480818F7D6A
:104E00008083E0910C04F0910D042083E09108046C
:104E1000F09109041082E0910A04F0910B0483E3FD
:104E2000808310921404E0911004F0911104908397
:104E3000E0910E04F0910F04808180618083E09105
:104E40000E04F0910F04808188608083E0910E044D
:104E5000F0910F04808180688083E0910E04F091CE
:104E60000F0480818F7D808360E08FE065DC8DECB6
:104E700093E00E945F1360E082E15EDC61E083E426
:104E80005BDC61E083E429DC8CEC90E09093B80675
:104E90008093B70688E993E09093B6068093B506B1
:104EA00087E491E09093BA068093B90683E393E395
:104EB000A3EFBFE38093B1069093B206A093B3062D
:104EC000B093B40610922001109222011092210199
:104ED000809121018068809321018091210180646B
:104EE00080932101C093730080917300806280934E
:104EF000730080E090E0A0E0B2E48093A506909378
:104F0000A606A093A706B093A8068FEF93E0909310
:104F1000AA068093A90684E795E00E94D80586E357
:104F200095E00E94D8050E94201461E08DE104DC28
:104F300060E08DE1D2DB61E08EE0FEDB61E08EE0DF
:104F4000CCDB8FE0A2DB019731F464E670E080E017
:104F500090E09BDCF6CF0E9427170E94D31DFBCF69
:104F600040D008F481E00895E89409C097FB3EF42E
:104F700090958095709561957F4F8F4F9F4F9923A6
:104F8000A9F0F92F96E9BB279395F6958795779524
:104F90006795B795F111F8CFFAF4BB0F11F460FFE4
:104FA0001BC06F5F7F4F8F4F9F4F16C0882311F03C
:104FB00096E911C0772321F09EE8872F762F05C050
:104FC000662371F096E8862F70E060E02AF09A95EB
:104FD000660F771F881FDAF7880F9695879597F9E0
:104FE0000895990F0008550FAA0BE0E8FEEF16167A
:104FF0001706E807F907C0F012161306E407F507CD
:1050000098F0621B730B840B950B39F40A2661F040
:10501000232B242B252B21F408950A2609F4A140E3
:10502000A6958FEF811D811D08950BD078C069D0A2
:1050300028F06ED018F0952309F05AC05FC01124F3
:10504000A2C07ED0A0F3959FD1F3950F50E0551FDD
:10505000629FF001729FBB27F00DB11D639FAA27CD
:10506000F00DB11DAA1F649F6627B00DA11D661F1C
:10507000829F2227B00DA11D621F739FB00DA11D3D
:10508000621F839FA00D611D221F749F3327A00DF7
:10509000611D231F849F600D211D822F762F6A2F93
:1050A00011249F5750408AF0E1F088234AF0EE0F18
:1050B000FF1FBB1F661F771F881F91505040A9F725
:1050C0009E3F510570F014C05EC05F3FECF3983E08
:1050D000DCF3869577956795B795F795E7959F5F8C
:1050E000C1F7FE2B880F911D9695879597F9089526
:1050F00097F99F6780E870E060E008959FEF80EC8B
:10510000089500240A94161617061806090608952D
:1051100000240A9412161306140605060895092E93
:105120000394000C11F4882352F0BB0F40F4BF2B02
:1051300011F460FF04C06F5F7F4F8F4F9F4F089542
:1051400057FD9058440F551F59F05F3F71F0479538
:10515000880F97FB991F61F09F3F79F0879508951D
:10516000121613061406551FF2CF4695F1DF08C03C
:10517000161617061806991FF1CF86957105610559
:1051800008940895E894BB2766277727CB0197F901
:105190000895A6E1B0E044E050E012C00396272F46
:1051A0001ED01CD0252F1BD0242F19C0242F29D06E
:1051B000252F27D000C024D0272F23C0DC01CB010E
:1051C000FC01F999FECF06C0F2BDE1BDF89A319617
:1051D00000B40D9241505040B8F70895262FF99928
:1051E000FECF92BD81BDF89A019700B4021639F046
:1051F0001FBA20BD0FB6F894FA9AF99A0FBE089517
:10520000262FF999FECF1FBA92BD81BD20BD0FB6E2
:10521000F894FA9AF99A0FBE0196089509D0A59FBD
:10522000900DB49F900DA49F800D911D11240895A1
:10523000A29FB001B39FC001A39F700D811D1124D7
:10524000911DB29F700D811D1124911D089550581C
:10525000BB27AA270ED063CF54DF30F059DF20F0F0
:1052600031F49F3F11F41EF449CF0EF4E095E7FBB3
:105270003FCFE92F65DF80F3BA1762077307840712
:10528000950718F071F49EF57DCF0EF4E0950B2E86
:10529000BA2FA02D0B01B90190010C01CA01A00188
:1052A0001124FF27591B99F0593F50F4503E68F1E3
:1052B0001A16F040A22F232F342F4427585FF3CF24
:1052C000469537952795A795F0405395C9F77EF4F5
:1052D0001F16BA0B620B730B840BBAF09150A1F03E
:1052E000FF0FBB1F661F771F881FC2F70EC0BA0FC4
:1052F000621F731F841F48F4879577956795B7954C
:10530000F7959E3F08F0B3CF9395880F08F0992743
:10531000EE0F9795879508950CD001CFF9DE40F0F8
:10532000F0DE30F021F45F3F19F0E2CE51112BCFC7
:10533000E5CE06DF98F39923C9F35523B1F3951B06
:10534000550BBB27AA2762177307840738F09F5FA6
:105350005F4F220F331F441FAA1FA9F333D00E2E15
:105360003AF0E0E830D091505040E695001CCAF782
:1053700029D0FE2F27D0660F771F881FBB1F261747
:1053800037074807AB07B0E809F0BB0B802DBF011A
:10539000FF2793585F4F2AF09E3F510568F0A8CE33
:1053A000F2CE5F3FECF3983EDCF3869577956795F8
:1053B000B795F7959F5FC9F7880F911D96958795CB
:1053C00097F90895E1E0660F771F881FBB1F6217EA
:1053D00073078407BA0720F0621B730B840BBA0BA8
:1053E000EE1F88F7E095089504D06894B111CBCEF4
:1053F0000895AEDE88F09F5790F0B92F9927B751E6
:10540000A0F0D1F0660F771F881F991F1AF0BA9588
:10541000C9F712C0B13081F0B5DEB1E00895B2CE67
:10542000672F782F8827B85F39F0B93FCCF386957E
:1054300077956795B395D9F73EF4909580957095DB
:1054400061957F4F8F4F9F4F0895CBDD08F48FEF0D
:105450000895C7DD880B990B0895991B79E004C066
:10546000991F961708F0961B881F7A95C9F78095A3
:10547000089597FB072E16F4009406D077FD08D008
:1054800051D007FC05D03EF4909581959F4F08952B
:10549000709561957F4F0895A1E21A2EAA1BBB1B40
:1054A000FD010DC0AA1FBB1FEE1FFF1FA217B307F0
:1054B000E407F50720F0A21BB30BE40BF50B661F06
:1054C000771F881F991F1A9469F7609570958095CA
:1054D00090959B01AC01BD01CF010895052E97FB6E
:1054E00016F400940FD057FD05D0D6DF07FC02D08C
:1054F00046F408C050954095309521953F4F4F4F49
:105500005F4F089590958095709561957F4F8F4F6F
:105510009F4F0895EE0FFF1F881F8BBF0790F691D6
:10552000E02D1994AA1BBB1B51E107C0AA1FBB1F8A
:10553000A617B70710F0A61BB70B881F991F5A951F
:10554000A9F780959095BC01CD010895CF93DF9385
:105550008230910510F482E090E0E0918E08F091A5
:105560008F0820E030E0C0E0D0E0309711F14081BA
:10557000518148175907C0F04817590761F48281D3
:105580009381209719F09B838A832BC090938F0877
:1055900080938E0826C02115310519F04217530754
:1055A00018F49A01BE01DF01EF010280F381E02DC2
:1055B000DCCF2115310509F1281B390B24303105C9
:1055C00090F412968D919C9113976115710521F0BD
:1055D000FB019383828304C090938F0880938E088D
:1055E000FD01329644C0FD01E20FF31F81939193B8
:1055F000225031092D933C933AC020918C08309170
:105600008D08232B41F42091020230910302309344
:105610008D0820938C082091000230910102211501
:10562000310541F42DB73EB7409104025091050277
:10563000241B350BE0918C08F0918D08E217F307DD
:10564000A0F42E1B3F0B2817390778F0AC014E5FF2
:105650005F4F2417350748F04E0F5F1F50938D089A
:1056600040938C088193919302C0E0E0F0E0CF0179
:10567000DF91CF9108950F931F93CF93DF930097FE
:1056800009F48CC0FC0132971382128200918E08BB
:1056900010918F080115110581F420813181820F4D
:1056A000931F20918C0830918D082817390779F5C0
:1056B000F0938D08E0938C0871C0D80140E050E071
:1056C000AE17BF0750F412962D913C911397AD0180
:1056D0002115310509F1D901F3CF9D01DA01338399
:1056E000228360817181860F971F8217930769F467
:1056F000EC0128813981260F371F2E5F3F4F318300
:1057000020838A819B8193838283452B29F4F093A4
:105710008F08E0938E0842C01396FC93EE93129785
:10572000ED01499159919E01240F351FE217F307AE
:1057300071F480819181840F951F029611969C933C
:105740008E938281938113969C938E931297E0E0BF
:10575000F0E0D80112968D919C911397009719F063
:10576000F8018C01F6CF8D919C9198012E5F3F4FEF
:10577000820F931F20918C0830918D0828173907CC
:1057800069F4309729F410928F0810928E0802C0A5
:105790001382128210938D0800938C08DF91CF91B1
:1057A0001F910F9108956F927F928F929F92AF9267
:1057B000BF92CF92DF92EF92FF920F931F93CF93FE
:1057C000DF93EC01009781F4CB01DF91CF911F9122
:1057D0000F91FF90EF90DF90CF90BF90AF909F9090
:1057E0008F907F906F90B2CEFC01E60FF71F9C0167
:1057F00022503109E217F30708F4A8C0D9010D912E
:105800001C91119706171707A8F00530110508F429
:105810009BC0C80104978617970708F495C00250EB
:105820001109061B170B019311936D937C93CF0104
:1058300022DF8AC05B01A01AB10A4C01800E911EC2
:10584000A0918E08B0918F0840E050E0E12CF12C3F
:10585000109709F44AC0A815B905D1F56D907C9050
:105860001197630182E0C80ED11CCA14DB0480F1D9
:10587000A3014A195B096A0182E0C80ED11C129685
:10588000BC9012971396AC91B5E0CB16D10440F0C2
:10589000B282A38351834083D9016D937C930AC064
:1058A0000E5F1F4FC301800F911FF9019183808309
:1058B000EB2DFA2FE114F10431F0D7011396FC938C
:1058C000EE93129741C0F0938F08E0938E083CC08E
:1058D0008D919C9111974817590708F4AC017D01EF
:1058E00012960D90BC91A02DB3CF80918C08909111
:1058F0008D0888159905E1F446175707C8F480917B
:10590000000290910102009741F48DB79EB740913B
:10591000040250910502841B950BE817F907B0F4B7
:10592000F0938D08E0938C08F901718360830CC0BB
:10593000CB010CDE7C01009749F0A801BE011BD011
:10594000CE0199DEC70104C0CE0102C080E090E024
:10595000DF91CF911F910F91FF90EF90DF90CF904B
:10596000BF90AF909F908F907F906F90089581E04F
:1059700090E0F894EDC2FB01DC0102C001900D92B1
:1059800041505040D8F70895FB01DC010D900020F4
:10599000E9F7119701900D920020E1F70895FB01BE
:1059A000DC018D91019080190110D9F3990B0895B4
:1059B000FB01DC0101900D920020E1F708950F93A7
:1059C0001F93CF93DF93CDB7DEB72E970FB6F89422
:1059D000DEBF0FBECDBF0E891F8986E08C831A8380
:1059E00009838FEF9FE79E838D83AE01465E5F4FF5
:1059F000688D798DCE01019611D02F813885F801FF
:105A0000E20FF31F10822E960FB6F894DEBF0FBE82
:105A1000CDBFDF91CF911F910F9108952F923F92AB
:105A20004F925F926F927F928F929F92AF92BF92AE
:105A3000CF92DF92EF92FF920F931F93CF93DF935A
:105A4000CDB7DEB72C970FB6F894DEBF0FBECDBF33
:105A50007C016B018A01FC0117821682838181FF20
:105A6000B0C1CE0101964C01F7019381F60193FD7F
:105A7000859193FF81916F01882309F49EC185323E
:105A800039F493FD859193FF81916F01853221F463
:105A9000B70190E0C7D1E8CF512C312C20E0203263
:105AA000A0F48B3269F030F4803259F0833269F41B
:105AB00020612CC08D3239F0803339F4216026C04A
:105AC0002260246023C0286021C027FD27C030ED5C
:105AD000380F3A3078F426FF06C0FAE05F9E300DAA
